:020000040C00EE
:100000000088FE1F010200089902000899020008FA
:1000100099020008990200089902000800000000F7
:10002000000000000000000000000000990200082D
:100030009902000800000000990200084D4B0208D8
:100040009902000899020008990200089902000824
:1000500099020008BD5A0208990200089902000896
:10006000C15A02080000000000000000000000006B
:100070009902000800000000990200089902000897
:1000800099020008990200089902000899020008E4
:1000900099020008990200089902000899020008D4
:1000A00099020008990200089902000899020008C4
:1000B00099020008990200089902000899020008B4
:1000C00099020008990200089902000899020008A4
:1000D0009902000899020008990200089902000894
:1000E0009902000899020008990200089902000884
:1000F0009902000899020008990200089902000874
:100100009902000899020008990200089902000863
:100110009902000899020008990200089902000853
:100120009902000865540208990200089902000823
:100130009902000899020008990200089902000833
:100140009902000899020008990200089902000823
:100150009902000899020008990200089902000813
:10016000000000000000000000000000000000008F
:1001700099020008990200089902000899020008F3
:1001800099020008990200089902000899020008E3
:1001900099020008990200089902000899020008D3
:1001A00099020008990200089902000899020008C3
:1001B00099020008990200089902000899020008B3
:1001C00099020008990200089902000899020008A3
:1001D0009902000899020008990200080000000036
:1001E0009902000899020008990200089902000883
:1001F00099020008615402089902000800000000FA
:10020000DFF874D01D4880471D4C1E4DAC4209DA02
:1002100021686268A368043BA2BFC858D050FAE7BF
:100220000C34F3E7184B194CA34208DA19685A68E2
:100230000020043AA4BF8850FBE70833F4E71448D1
:100240008047144880470000B464020C0088FE1FF9
:10025000A00C0000B464020C0088FE1F0000000027
:10026000A094FE1F201300000000002000000000EA
:1002700000000020000000000088FE1F8900020826
:1002800048020008600200086002000878020008C6
:0C029000415B0208A15A0208FEE70000D2
:020000040C02EC
:100000001D4BDB68D90310B525D51C4BDA6812F0FF
:10001000010F1C4602D105F05FFC00E01848226881
:10002000164B520710D59A6899689B68C2F3036211
:10003000C3F30644531C04FB0333B0FBF3F0C1F3DA
:10004000062303FB000007E09B6803F07F030133F6
:10005000B0FBF3F000E00A48074AD368DBB2013393
:10006000B0FBF3F0136903F001030133B0FBF3F0CD
:10007000044B186010BD00BF0046005010470050F0
:1000800000366E01C0FF032038B5094A094D4FF014
:100090000054234603CBAB42106051601C4602F172
:1000A0000802F6D105F0D8FB05F01AFC38BD00BFF8
:1000B000C4FF03201000002070470020704700207C
:1000C00070470020704700207047002070470020D4
:1000D000704700002DE9F74F4FF0000980460F46AA
:1000E0004D46354B19881FFA89F291421FD903EB0F
:1000F0004203588802F032FB0646D0B18369B3F858
:1001000000A000239AB252450ED25C1CE0B23146E8
:10011000D6F818B002F084FCC0F30F101BF81030B2
:100120001D44ADB22346EDE709F10109D9E70026E8
:1001300001E0054625260735C5F3CF050EB100249D
:1001400031E0B34634461D4B19881FFA8BF29142B9
:1001500029D903EB4203588802F000FB824600B322
:100160008369B3F800C000239AB2624516D203F146
:100170000109DAF81820CDF804C05FFA89F0514679
:10018000009202F04DFC009ADDF804C0C0F30F109D
:1001900012F810301C44A4B24B46E5E70BF1010BFA
:1001A000D1E7044624260734E4103046A8F800407E
:1001B0003D8003B0BDE8F08F0488FE1F0888FE1F55
:1001C00010B50022084B1C88D1B2A1420BD203EB20
:1001D000410301325B88B3F5D05F02BF034B1B883C
:1001E00020F8023BEEE710BD0888FE1F0288FE1FC4
:1001F00010B50022084B1C88D1B2A1420BD203EBF0
:10020000410301325B88B3F5B05F02BF034B30F8A6
:10021000021B1980EEE710BD0488FE1F1E88FE1F1A
:10022000024B5A88024B5A80704700BF1C88FE1F41
:100230000088FE1F0F4B10491A78104B30B58AB159
:100240000F481C680568D1E9002300222243AC4214
:10025000C1E9002304D2003243F10103C1E90023C4
:10026000046003E0D3E90023C1E90023054B002229
:100270001A6030BDE5A5FE1FA094FE1F10090154B1
:10028000DCA4FE1FE0A4FE1F70B51E4641F2F80379
:1002900098420C4615460ED19DF810306BB971B9D5
:1002A000082A0ED8FFF7C6FF304607492A4605F050
:1002B0008DFC204670BD0B2070BD052070BD112047
:1002C00070BD0F2070BD00BFA094FE1F014B1868C9
:1002D000704700BFA894FE1F0F4B5A8D10B51946EA
:1002E00022B90E481C8D0089844203D9012381F86C
:1002F000403001E083F84020094B5A8D194622B95D
:1003000006481C8D0089844203D9012381F84030BE
:1003100010BD83F8402010BDDCA6FE1F4C93FE1FCD
:1003200098A6FE1F10B528B313490B681BB90860C7
:100330004360036015E004891A89A24206D90022AD
:1003400080E80C00186008600BE013461A89A2428E
:1003500010D008D91A6880E80C001A6802B1506001
:100360001860002010BD5A68002AEED15860036062
:100370004260F6E7012010BDA894FE1F0C4A30B57C
:1003800015682B4693B1198981420DD11C685968B3
:1003900004B1616001B10C6000241C605C602B89B9
:1003A000834203D1116030BD5B68EBE730BD00BF15
:1003B000A894FE1F38B5054B1C681D4624B1208942
:1003C0006468FFF7DBFFF9E72C6038BDA894FE1FD7
:1003D00010B5044622894FF6FF739A4205D0204695
:1003E000FFF7A0FF10B92834F4E7002010BD00008B
:1003F00008B5064B064800221A60FFF7E9FF20B94E
:100400000448BDE80840FFF7E3BF08BDA894FE1FFD
:100410004888FE1F348AFE1F254B264A10B520202F
:10042000002444F21F0118805C805C6099811A618D
:100430005C619C831C621C855C8583F840401E4B7C
:1004400018805C805C6099811A615C619C831C628D
:100450001C855C8583F84040184B1C70FFF7C8FF73
:1004600008B1FFF7A7FF164B1C70164B1C70164BFC
:100470001C80164B1C70164B1C60164B1C60164BD8
:100480001C60164B1C60164B1B6813F0080F154BB5
:1004900001BF01221A70144B1A680DBF134B0022C2
:1004A0001A701A60124B4FF47A621A6010BD00BFC6
:1004B000DCA6FE1F48E8010098A6FE1F20A7FE1F2D
:1004C0003CA7FE1F3DA7FE1F6EA7FE1F70A7FE1FC5
:1004D0004CA7FE1F28A7FE1F38A7FE1F50A7FE1F10
:1004E00008000154E5A5FE1F10090154DCA4FE1FFD
:1004F000E0A4FE1F2DE9F04F214ED6F800C085B0D4
:10050000BCF1000F38D01F4FDFF88C90DFF88C80E3
:100510001D4D1E4C3B780093B9F8000098F8001070
:100520002A682368E047FF28834625D0184A1378B5
:10053000013B9246032B14D8DFE803F00B020F0FA8
:10054000144B0393186820B105F028FB039B00228D
:100550001A60002158460A4601E02968226803F023
:100560006DFA00238AF80030A9F8003088F80030CE
:100570002B6023603B70336005B0BDE8F08F00BF97
:1005800038A7FE1F3DA7FE1F4CA7FE1F28A7FE1F72
:100590003CA7FE1F50A7FE1F6EA7FE1F70A7FE1FE1
:1005A00038B51E4B1B783BB11D4A138819B2002980
:1005B000C4BF03F1FF33138001F0EAFB1949088837
:1005C00068B1194A138801339BB29842138006D848
:1005D00000230B801380154B1B6803B19847144B05
:1005E000144A1978144B41B1D2E90001134C00218F
:1005F00000258D4208BF844208D3D2E90001104C87
:10060000002500196941C2E9000102E04FF47A6255
:100610001A601A6801321A6038BD00BFE8A5FE1FD3
:10062000F2A5FE1FB4A5FE1F50A5FE1FE4A4FE1FE9
:10063000E5A5FE1FA094FE1FE0A4FE1F40FBE1FF06
:1006400040420F000A4B1B6802466BB19842A3EB75
:10065000000394BF184603F1FF3042B1054B1B68FD
:10066000834203D2C01A7047184670470020704773
:100670001009015400A5FE1F174BD3F82032174B69
:100680009A8B12F0010F70B51D46154E03D1B48B35
:1006900014F0010403D00020FFF7D4FF04461148F2
:1006A000FFF78EFD104B0F491888104B00F1A84042
:1006B0001A8800F5803005F089FAAB8BDA0702D48E
:1006C000B38BDB0707D52046FFF7BCFF7369834276
:1006D0003CBF034B586170BD00000154DCA6FE1FF7
:1006E00098A6FE1F64A5FE1F02A6FE1FEAA5FE1F18
:1006F0000D4B1B7810B5ABB90C4C206870B1FFF7EF
:10070000A1FF0B4B20605A680AB1824200D95860A1
:10071000084B5A680AB1824200D958600020FFF79E
:1007200091FF206010BD00BFF4A5FE1FF0A4FE1FC6
:10073000DCA6FE1F98A6FE1F38B51A4DAB8BD90755
:1007400004D4194B9C8B14F001040DD00020FFF74A
:1007500079FF164B1860164B01221A70154B0022B8
:1007600004461A60FFF7C4FF134B14481988144B52
:1007700001F1A8411A8801F5803105F027FA0F48E8
:10078000FFF736FDAB8BDA0703D4074B9B8BDB07F8
:1007900007D52046FFF756FF6B6983423CBF014BEC
:1007A000586138BDDCA6FE1F98A6FE1F60A5FE1F7F
:1007B000ECA4FE1F08A5FE1FCEA5FE1F0CA5FE1F64
:1007C000C2A5FE1F08B50B4B00221A800A4B1B78EE
:1007D0005BB10A4B1B8843B1094B5B88032B04D1E7
:1007E000084B1B880BB9FFF747FF074B00221A8005
:1007F00008BD00BFF6A5FE1FFAA5FE1FEAA5FE1F55
:1008000098A6FE1FE6A5FE1FCAA5FE1F204B214A83
:1008100010B51A60204B00241C60204B1C60204B3C
:100820001C60204B1C60204B1C60204B1C60204B2C
:100830001C6001F04BFBFFF7EFFD1E4B01221A700D
:100840001D4B1C701D4B1C601D4B1C601D4B4FF441
:100850007A711C601A461C4B146818681B68984211
:10086000A3EB000388BF03F1FF3316480CB19C4291
:1008700000D903600139EED1144B1B8813F0400FEF
:10088000134B14BF082204221A80002010BD00BFA1
:10089000A8A5FE1F4C8BFE1FF4A4FE1FF8A4FE1F8C
:1008A000B0A5FE1FE4A4FE1FE8A4FE1F54A5FE1F72
:1008B00058A5FE1FAE94FE1FECA4FE1FF0A4FE1F61
:1008C00060A5FE1F00A5FE1F10090154020501547A
:1008D00052A5FE1F08B5084B9B8BDA0703D4074BC4
:1008E0009B8BDB0704D5064B1B880BB9FFF700FF7A
:1008F000BDE80840FFF794BCDCA6FE1F98A6FE1FCB
:10090000C2A5FE1FF8B5304B00221A802F4B1B7872
:10091000002B54D02E4B1C788CB12E4B1A886AB108
:100920002D4B1C885CB12D4B19888A4284BF013144
:1009300019801C88A01A4442444100E01446284B08
:100940001F88002F2FD0274A27491388BB421646FD
:1009500017D9088848B1254DDFF898E02A8DBEF8F0
:1009600008E0964524BF03322A851B4A128842B10B
:1009700038B91F481F4D028D2D89954224BF03327F
:1009800002850A885AB91449098841B11A49D1F82F
:100990002012090503D5164B32801A8503E0BB42AD
:1009A0009CBF01333380FFF795FF44B1FFF764FE2E
:1009B000084B1B88012B02BF084B00221A80BDE8A0
:1009C000F840FFF789BC00BFC8A5FE1FF4A5FE1FB5
:1009D000FAA5FE1FE6A5FE1FEAA5FE1FCAA5FE1F7B
:1009E000ECA5FE1FFEA5FE1FC2A5FE1FDCA6FE1F76
:1009F00098A6FE1F4C93FE1F000001543E4B73B59A
:100A0000D3F82042A4B204F00805ADB215B1FFF747
:100A1000D9FE0125394B1B78002B5ED014F4806F72
:100A2000374E2AD0374B1B782BB1374B1B7813B17D
:100A3000364B00221A80338D13B1314A013B1385A6
:100A4000334B328D1A85334B01221A70324B1B788F
:100A500013B1FFF771FE10E0304B31491888314B6C
:100A600000F1A84202F580321B881278D2B20A70D7
:100A700003442D4AD35CDBB20B707388012B01D188
:100A8000FFF728FF294B1B7853B1294B1B883BB13B
:100A90001F4B5B88012B01D0222B01D1FFF7ECFD0E
:100AA000154BD3F82042A4B2620516D5738D184AAF
:100AB0001B4901339BB273855385184B1888194B1A
:100AC00000F1A84202F580321B881278D2B20A7077
:100AD0000344154AD35CDBB20B70630702D5FFF702
:100AE00011FF00E025B100230193124B1B68019315
:100AF000FFF7F2FB02B070BD00000154FBA5FE1F22
:100B0000DCA6FE1FDCA5FE1FF4A5FE1FFEA5FE1F32
:100B100098A6FE1FF0A5FE1FF5A5FE1FCEA5FE1F81
:100B2000D8A5FE1FC2A5FE1FFFFF0054FAA5FE1F99
:100B3000EAA5FE1F8C090154234B1B7810B5002B2E
:100B400041D0224B1B7813B1214A127842BB214A73
:100B500012782ABBB3B9204BD3F820329BB25A0586
:100B600008D51B4B01221A701C4B1B7853B1FFF7A1
:100B7000E3FD07E01A4A128822B91B0542BF144B55
:100B800001221A7004F032FEFFF7A4FE154B1B7809
:100B900023B1154B1B880BB1FFF76EFD04F06AFC07
:100BA000124B1B68B3F57A6F01D3FFF743FB01F0DB
:100BB00011FAFFF79FFC01F053F90D4B1B6813B1BD
:100BC000BDE81040184710BDAE94FE1FFBA5FE1FE8
:100BD000F0A5FE1FF4A5FE1F00000154F5A5FE1FA1
:100BE000C2A5FE1FFAA5FE1FEAA5FE1FE0A4FE1F78
:100BF00058A5FE1F2DE9F041474E3588ADB22B04B4
:100C000040F18780454F05F4E06225F4E044B2F5F9
:100C1000807F3B68A4B20AD002D8002A75D072E067
:100C2000B2F5007F1AD0B2F5806F30D06BE03C4A4D
:100C3000126822B118469047002866D063E0B3F5E9
:100C4000006F60D8374A116800295CD001EB43017E
:100C5000354B36481A8804F0B9FF56E0344A12681A
:100C60001AB11846904768B10AE0B3F5006F07D88B
:100C70002C4A126822B12D49098822F8131001E08C
:100C800044F400542B4B4FF47A721A803DE0264A0C
:100C900011880829904620D1B3F5006F33D8204A37
:100CA00012681AB11846904750B12CE01D4A1168DD
:100CB00049B31E48B8F8002001EB430104F086FF59
:100CC00024F4F044A4B2348034883B68A4B204F421
:100CD000E062B2F5806FDFD017E0174B1B6813B1ED
:100CE000984760B10FE004F093FB10B90D4B1B68FF
:100CF00013B944F4006408E01A890C4B1A8025F4F7
:100D0000F044A4B201E044F400540C4B00221A80D9
:100D10003480BDE8F08100BF020501540405015490
:100D2000F4A4FE1FA8A5FE1F52A5FE1F080501542E
:100D3000F8A4FE1FB4A5FE1FB0A5FE1F50A5FE1F00
:100D4000024A00231360024A13807047B8A5FE1FB1
:100D500044A7FE1FC3881B0B013B072B05D8DFE808
:100D600003F00A060A0A0A0A0A080520704702F078
:100D700057BB02F013BF04207047000070B50E4D42
:100D80002C6834B12046022101F0DAFB80B92860DA
:100D900070BD802004F0FAFE064658B1074B0546A8
:100DA0000FCB07C530462B8002F0F8FE204670BD01
:100DB000002070BD072070BDB8A5FE1F58A7FE1FFC
:100DC00038B5054D2C88044004F010FD2C80BDE89A
:100DD000384004F04FBB00BF0402015438B5054D44
:100DE0002C88A4B2044304F001FD2C80BDE83840F7
:100DF00004F040BB04020154064B074A1B889BB217
:100E000013F4006F01D1DB0401D5002300E00123BE
:100E10001370704702050154AF94FE1FC00000F12B
:100E2000A84303F5843303CB024A10605160104697
:100E3000704700BFDDA5FE1F82B001238DF807308B
:100E4000084B9DF80720C0000344D2B21A701A78EC
:100E5000D2B28DF807209DF80720D207F7D502B04F
:100E6000704700BF0708015482B000238DF8073097
:100E7000084B9DF80720C0000344D2B21A701A78BC
:100E8000D2B28DF807209DF80720D207F7D402B020
:100E9000704700BF070801545E4B1A8842F6FE7384
:100EA0009A4270B505461CD90020FFF7B7FF81793B
:100EB00042880388CE0740F1A580017901F00C003B
:100EC000042840F09F808C0740F19C80243A5C2AE3
:100ED00000F29880A3F58053B3F5005F80F0928014
:100EE00001E0142494E00120FFF798FF8179438802
:100EF0000288C90740F18680017911F00C0440F0A6
:100F0000818088077ED5243B5C2B7BD8A2F580525C
:100F1000B2F5005F76D2032D65D93F4E0123032041
:100F20003370FFF77BFF817942880388C9071DD59D
:100F3000511E432968D839490988914264D1027900
:100F400012F00C0F60D136490978022905D1A3F5BA
:100F50008053B3F5005F04D356E0324909889942C3
:100F600052D1930708D50023337005E0002A4BD1F6
:100F70002A4B1B88002B47D10220FFF74FFF8179B6
:100F800042880388CE0729D5511E43293ED82649D9
:100F9000098891423AD1027902F00C01042935D135
:100FA0001F490978022905D1A3F58053B3F5005FE5
:100FB00004D32BE01D490988994227D102F0400152
:100FC00001F0FF001A4B11B10121197000E01870F7
:100FD00090070AD5104B00221A7006E0B2B9124BE6
:100FE0001B889BB901E0022DC6D8124B1B78AB427F
:100FF0000ED92846FFF712FF0F4B82791A70013580
:10100000EDB2F2E7162002E01E2000E01D200446AB
:10101000204670BDEEA5FE1FBCA5FE1FEAA5FE1F63
:10102000C1A5FE1F02A6FE1FC2A5FE1FCEA5FE1F64
:10103000FCA5FE1F00A6FE1FB094FE1F2DE9F74F72
:10104000AB4DAC4AAC4CAD4FB4F80C90B7F80CA01B
:10105000002302202B801370FFF7E0FE4178037815
:10106000A74A43EA012313800379032013F0020FF8
:1010700093460CBF03260126FFF7D0FEA14A038842
:10108000A14913800279A148019112F0020FA846EC
:101090000D8800880CBF0322012202FB0532824228
:1010A00005DD9B49098801448B42C0F2F1819949D1
:1010B00009888A4205DD984A12880A449342C0F2A0
:1010C000E781DFF868E2BBF80020BEF800E006FB2D
:1010D0000E26864207DDDFF838C2BCF800C0604447
:1010E0008242C0F2D7818E4205DD8B4800880144E0
:1010F0008A42C0F2CF819E4203DD2B449A42C0F265
:10110000C981864B864A1E787888F6B21F3316F05E
:10111000090B1B681168628825D016F0020F00F0D9
:10112000C1811AEA09090AD019F0040F00F0BA8146
:1011300019F0080F03D116F0040F40F0B381D4F872
:1011400010C03BB16345C0F0A781DFF8E4C163453F
:1011500000F2A28106F0060CBCF1060F03D129B102
:10116000994280F0A1814FF0000C00E08C46DFF83E
:10117000C49199F80090B9F1000F21D0BBF1000F94
:101180000BD1A2F10209B9F1010F40F28B81A0F15C
:101190000209B9F1010F44D884E116F0040F05D11A
:1011A000032A00F07F81032800F07C8116F0020FF3
:1011B00028D1022A00F07681022840F07B8171E17B
:1011C000BBF1000F0DD1BEF1000F05D0002D14BFF3
:1011D00022200020012224E0281C18BF0120724692
:1011E0001FE0BEF1000F00F07081BCF1000F00F0B5
:1011F0006781002D00F06281032216F0040F14BFF6
:1012000003200220032A05D1636263607B627B6056
:10121000032206E0022A04D1636263607B627B6082
:101220000222DFF8149199F80090B9F1000F06D16D
:10123000002A00F03381002800F0308101E002B97B
:1012400028B1DFF8F8904FF0010A89F800A0DFF824
:10125000EC9099F80090B9F1000F0AD0BEF1000FA0
:1012600002D04FF4806502E01DB14FF40065A8F88C
:101270000050951E012D02D9851E012D09D8294D3A
:101280004FF0010985F80090BEF1000F01D1A8F8D8
:1012900000E0DFF8AC90244DDFF8A8B062804FF09A
:1012A000000AA9F800A0DFF8A0907880A5F800A0B7
:1012B000A9F800A0ABF800A0BCF1000F46D09942FD
:1012C00001EB030CBCFBF3F207D303FB12CA90B291
:1012D000BAF1000F02D1013000E00120A9F80000AE
:1012E00090B203FB12C202B10130288037E000BF88
:1012F000DAA5FE1FF0A5FE1FDCA6FE1F98A6FE1FA6
:10130000CEA5FE1F02A6FE1FEAA5FE1F86A6FE1F93
:101310007CA6FE1F74A6FE1F8EA6FE1F8109015427
:10132000A4090154F4A5FE1FE6A5FE1FC2A5FE1FD9
:10133000000050C320A7FE1FBCA5FE1FFBA5FE1F7B
:10134000CAA5FE1FFEA5FE1FECA5FE1F022A04BFB4
:101350000122A9F8002003281CBF01222A805F4A2D
:101360005F4D002010805F4A108880B2BEF1000FF0
:101370000ED068B1203A128892B24AB1023242438A
:1013800002F5C342273246F2A810B2FBF0F200E0A9
:1013900000222A802888544A127810B9002A7FD166
:1013A00001E0002A7CD0514A127842B1BEF1000F10
:1013B00005D0B8F8002042F48062A8F800204C481C
:1013C000DFF844C14B4D002202808CF800204A48CF
:1013D000DFF838C102808CF800204848DFF830C1BF
:1013E0002A80ACF800200280454A1278D2B212F06E
:1013F000080F1EBFB8F800C04CF0040CA8F800C0DD
:10140000120642BFB8F8002042F00802A8F80020F7
:1014100000222285628584F84020B4073A857A85C7
:1014200087F8402024D563B1364AB3FBF2F2042A90
:1014300085BF520092B201220A2488BFB2FBF4F2A7
:101440002A80720714D5994201D22B880FE00B44F1
:101450002C49B3FBF1F3042B89BF5B0001230A2164
:10146000B3FBF1F303802A88038803EB5203038064
:10147000BEF1000F02D00220FFF7F6FC019B1B8893
:1014800013B10320FFF7F0FCFFF7F6F8002022E08D
:101490001E2020E01D201EE036201CE029201AE03E
:1014A0001F2018E0302016E019F0100FFAD04FF08E
:1014B000010C5CE6032A3FF4A7AEB2E62846A3E699
:1014C0000DB1022299E62846A6E60DB1724694E6D1
:1014D00028462A46A5E603B0BDE8F08F22A7FE1FE6
:1014E000F8A5FE1F20040154FCA5FE1FFBA5FE1F4E
:1014F000C8A5FE1FD0A5FE1FF6A5FE1FD6A5FE1F80
:1015000051010154A0860100DCA5FE1FF1A5FE1FBC
:10151000D4A5FE1F104B1B7803F00F035A1E012A9F
:1015200003D9042B01D0082B02D10C4B188870472B
:101530000B4B1B782BB10B4BC8221A800A4B002295
:101540001A800A4A0023138582F84030084AFF2097
:10155000138582F840307047C6A5FE1FC4A5FE1F44
:10156000F4A5FE1FD4A5FE1FCCA5FE1FDCA6FE1F02
:1015700098A6FE1F024A00231370024A1370704798
:10158000F0A5FE1FF5A5FE1F08B51F4B1B8813B164
:101590000220FFF751FC1D4B1B8813B10320FFF7FE
:1015A0004BFC4FF2F330FFF70BFC194A002313708A
:1015B000184A1370184A1370184A1370184A137097
:1015C000184A1380184A1380184A1380184A138047
:1015D000184A1380184A1380184A1380184A138037
:1015E000184A1385538582F84030174A138553856E
:1015F00082F84030154A1380154A1370154A13704B
:10160000154A137008BD00BFC2A5FE1FEAA5FE1F44
:10161000F0A5FE1FFBA5FE1FF4A5FE1FDCA5FE1F07
:10162000F1A5FE1FECA5FE1FFEA5FE1FD0A5FE1F07
:10163000C8A5FE1FF6A5FE1FD6A5FE1FE6A5FE1F28
:10164000CAA5FE1FDCA6FE1F98A6FE1FD4A5FE1F7E
:10165000FCA5FE1FFAA5FE1F20A7FE1F164B1A7839
:1016600082424FF6FF7218BF187091421EBF02F1FE
:10167000A84202F2351211801A78104B1A80104BD2
:1016800009B1C20601D400220EE02D2906D01A2984
:1016900004D0322902D00B4A12780AB1012203E0A9
:1016A0001B290CBF02220D221A701A7842F0100278
:1016B0001A70054B1A707047C1A5FE1F3001015406
:1016C00001A6FE1FC6A5FE1F390101542DE9F04FEA
:1016D000BB4FBC4DBC4C85B04FF6FF734FF00108BB
:1016E00010F0100F3B808B4685F80080019700F0CA
:1016F0000F00237805D023F010032370CDF8088065
:1017000009E0DA0602D5012840F0178203F00F0342
:101710002370002302932378DFF8D092C6B206EB41
:10172000031303F0FF0ABAF1440F26D00DD8BAF123
:10173000220F18D002D8BAF1120F04E0BAF1240F28
:1017400013D0BAF1420F0ED01FE0BAF1820F0AD0C7
:1017500002D8BAF1480F04E0BAF1840F0DD0BAF103
:10176000880F0AD011E0022009E098489849FEF756
:10177000B1FC0746002840F00381964A1078FFF735
:101780008BFB87B2002F40F0FB80934903914FF011
:101790000008BAF1320FA1F8008000F0C8812FD8FC
:1017A000BAF1210F00F0C68012D8BAF1130F54D04D
:1017B00007D8BAF1110F00F0C880BAF1120F4ED05D
:1017C000B7E1BAF1140F00F0B281BAF1180F2DE0B1
:1017D000BAF1240F4CD006D8BAF1220F00F0B8802D
:1017E000BAF1230F22E0BAF1280F00F0A081BAF17C
:1017F000310F40F09E81794B132783F8008039E147
:10180000BAF1440F00F0A48013D8BAF1410F00F0F0
:10181000888006D8BAF1340F00F08981BAF1380F08
:1018200004E0BAF1420F6AD0BAF1430F40F081816F
:101830007DE1BAF1820F58D006D8BAF1480F2FD007
:10184000BAF1810F63D074E1BAF1840F45D0C0F0D2
:101850006E81BAF1880F7BD06BE157460AE1FFF742
:10186000CBFA5F4A1278002A40F0F780512701E155
:10187000FFF7E4FB0746002840F04581DFF8708160
:1018800028704046FEF71DFC0746002840F03B81CB
:10189000B8F80000FFF7A2FA524B01221A70E9E0F3
:1018A000029B53B14A4A12880AB1022003E0474A18
:1018B000128812B10320FFF7D7FAFFF72BFE074675
:1018C000002840F02A812870FEF7FFFB0746002819
:1018D00040F023810122444BE0E7FEF7F8FB474646
:1018E000FFF748FE85F80080C4E0FEF7F0FB0746EE
:1018F000FFF740FE85F80080002F40F09880FEF74B
:10190000E2FBFFF741FE002129700F46B2E0FEF72F
:10191000DEFB0746FFF72EFE85F80080002F40F023
:101920008680FEF7D0FB0746FFF72EFE00232B70C4
:10193000002F7AD100F0AEFCFEF7C1FB274B00224E
:1019400007461A704FF0210A71E0244981F800809F
:10195000029B13B15046FEF7AFFB237813F00C0F38
:1019600000F0E9801A4B1B880BB1022005E0174BF1
:101970001B88002B00F0DF800320FFF775FADAE008
:101980002278042A08D0082A02D0022A34D107E09B
:10199000FEF79DFBFFF7EEFDFEF795FBFFF7F4FD6D
:1019A000162F27D100F076FCFEF789FB0020FFF709
:1019B00043FA0120FFF740FA012323705AE000BFE9
:1019C000F2A5FE1FC0A5FE1FC1A5FE1FEAA5FE1FB2
:1019D000C2A5FE1F00A6FE1FBEA5FE1F20A7FE1F5C
:1019E000AF94FE1FFAA5FE1FF5A5FE1FE8A5FE1F7A
:1019F000DAA5FE1F02222270FF2F3BD1012289F8B7
:101A000000204F4ABAF1240FA2F800A00AD006D84D
:101A1000AAF11203012B12D84FF4FA6310E0BAF1C5
:101A2000480F0CD142F228330AE04FF0410AFF2F51
:101A300020D1039B012289F80020A3F800A0C8232D
:101A4000019A1380019B1B886FF009011AB292FB67
:101A5000F1F21344019A13806FE000F0C9FB0746CE
:101A6000002846D0FF2FC9D02B780BB9FEF727FBF3
:101A700000F010FC207800F00F039E4231D017B91F
:101A8000BBF1000F25D03043030711D52D4B1B7838
:101A90001BB1FEF71CFBFFF76DFD2B4B1B880BB139
:101AA000022003E0294B1B8813B10320FFF7C4F980
:101AB00057B12378082B02BF254B04221A702378D4
:101AC00043F01003237006E0BBF1000F01D046F095
:101AD000100626705F46002389F8003020783946CA
:101AE00002E0002189F8001005B0BDE8F04FFFF7D3
:101AF000B5BD00222A70FEF7E0FA07460028B1D1F2
:101B00000122144BCAE6FF2F3FF478AF2B780BB9B4
:101B1000FEF7D9FAFFF738FDACE7FF2F3FF46EAFC1
:101B20002B780BB9FEF7D3FAFFF724FDA2E71127B4
:101B3000A0E712279EE7FE279CE705B0BDE8F08FDF
:101B4000BEA5FE1FF5A5FE1FC2A5FE1FEAA5FE1F2E
:101B5000C1A5FE1F72A6FE1F70B57C4E3378002B08
:101B600000F0F2807A4B7B4CB3F90030002B5FD150
:101B70002388242BC3F3071514D003D8123B012B61
:101B800003D9D9E0482B21D0D6E0734B1B780BB991
:101B9000FEF795FA00F07EFB704B1B7803F00F0305
:101BA000012B0BE06C4B1B780BB9FEF78CFAFFF79F
:101BB000EBFC6A4B1B7803F00F03022B40F0BF8055
:101BC000674B1C88002D40F0A380BDE0654B1B785F
:101BD000B3B1654B1B78002B00F0A580634B1B78DD
:101BE00023B9634B1B88002B40F0A180614B1B780D
:101BF000002B00F09A80604B01221A70082598E0B3
:101C00005B4B1B88002B40F09280544B1B7803F0F9
:101C10000F03042BEFD1524B1C88002C00F08C805A
:101C20004D4B1B780BB9FEF752FAFFF7A3FC87E088
:101C30002388242B1FD003D8123B012B03D970BD5E
:101C4000482B2FD070BD444B1A78002A7CD000223C
:101C50001A70FEF732FA30B9484B257801221A7013
:101C600005F00F0568E0FF286ED0FEF728FABDE802
:101C7000704000F00FBB384B1A78002A64D0002265
:101C80003F481A70FEF71DFA20B93E4B01221A7028
:101C900004253CE0FF2857D0FEF715FABDE8704058
:101CA000FFF772BC2C4B19781A4600294CD02D49ED
:101CB0000978E9B13448B0F90020002A44DD3349FD
:101CC000B1F9004094423FDB002202800A801A7082
:101CD000FEF7FBF920B9284B01221A70082516E0FF
:101CE000FF2831D0FEF7F3F9BDE87040FFF742BCA2
:101CF0001F4B1B8813B11D4B1B782BB30023137094
:101D0000FEF7E3F90028E6D0FF28EBD170BD0024F0
:101D1000002333700CB145F0100528462146BDE87C
:101D20007040FFF79BBC2D247AE71A2478E71B2428
:101D300076E700243470F0E7002DFAD170BD01245D
:101D400015B100233370E6E770BD00BFE8A5FE1FA4
:101D5000F2A5FE1FBEA5FE1FC0A5FE1FC6A5FE1F45
:101D6000C4A5FE1FF4A5FE1FDCA5FE1FF0A5FE1FE7
:101D7000C2A5FE1FF1A5FE1FF5A5FE1F72A6FE1F40
:101D8000DAA5FE1FFAA5FE1FD4A5FE1FCCA5FE1FD7
:101D9000274B1B78002B49D0264B1B78002B45D0B6
:101DA000254B264A1988264B21B11088884201D339
:101DB000002206E012888A423EBF204901320A8092
:101DC00001221A701A7862B11E4A108848B11E4961
:101DD0000A8882422BBF1A4A013200210A8028BF9A
:101DE00011701A78194BF2B1194A12891AB11949AE
:101DF000098D91420BD201221A70174BB3F90030B2
:101E0000002B13DD154A13880133138070471A78AD
:101E100062B100221A70104BB3F90030934205DD15
:101E20000E4B1A807047197801B11A70704700BFC5
:101E3000F4A5FE1FFAA5FE1FD0A5FE1FC8A5FE1F14
:101E4000DCA5FE1FD6A5FE1FF6A5FE1FF1A5FE1FF1
:101E50004C93FE1FDCA6FE1FD4A5FE1FCCA5FE1FC3
:101E6000124B1B8873B1124B1B88DB070AD4114B32
:101E70001B883BB1104B1B7813B104201B2112E0CF
:101E80000E4A13700E4B1B787BB10B4B1B7863B162
:101E90000C4B1B7813B904202C2104E00A4B1B784F
:101EA0001BB904201A21FFF711BC7047F8A5FE1FCB
:101EB00040040154C2A5FE1FF5A5FE1FF0A5FE1F9C
:101EC000F4A5FE1FDCA5FE1FF1A5FE1F38B5284BAB
:101ED000284C1B782370284B284A1B889BB29B02F6
:101EE00003F6FF731380FEF787FF00252378E8B21F
:101EF000834205F1010502D9FEF79EFFF6E700F0E7
:101F000021F91F4B00241C701E4B1C701E4B1C70B3
:101F10001E4B1C701E4B1C701E4B1C701E4B1C80DD
:101F20001E4B1C801E4B1C801E4B1C801E4B1C809D
:101F30001E4B1C701E4B1C701E4B1C801E4B1C80AD
:101F40001E4B1C801E4B1C801E4B0120214618700E
:101F5000FFF784FB1C4B1C801C4B1C701C4B1C7023
:101F6000FEF7EEFE2046BDE83840FEF729BF00BF71
:101F70000500015400A6FE1F06000154EEA5FE1F39
:101F8000C0A5FE1FE8A5FE1FF0A5FE1FF5A5FE1FBC
:101F9000FAA5FE1FFCA5FE1FF8A5FE1FC8A5FE1F83
:101FA000D0A5FE1FF6A5FE1FD6A5FE1FF4A5FE1F99
:101FB000C6A5FE1FC4A5FE1FDAA5FE1FC2A5FE1FF3
:101FC000EAA5FE1FC1A5FE1FBEA5FE1F01A6FE1F9E
:101FD000FBA5FE1F2DE9F0413B4F00F09BFB3C7839
:101FE00034B13A4B1B78DEB2394B1C78E4B200E0D6
:101FF0000126384BD3F82052ADB2A90601D5FEF721
:10200000F9FD15F0010FDFF8EC8009D098F8001009
:1020100031B9314B25F011051878ADB2FFF756FBF9
:10202000EA0611D598F8003073B92C4B187800F0F7
:10203000100303F0FF013BB920F01003012B03D084
:1020400000F00F00FFF742FB98F800300BB1FFF7EC
:1020500083FD3B78002B35D016F0010105D11F4BD5
:10206000187800F00F00FFF731FB04F0080404F0CB
:10207000FF037CB91A4A127862B11A4A13701A4BDC
:1020800012781B8803F1A84303F58033D2B21A708B
:1020900000F0E6F906F0020303F0FF04134A13B15F
:1020A000137833B901E013781BB100F01BFA104B21
:1020B0001C70084BD3F82032DB0503D5BDE8F04196
:1020C00000F0AEBABDE8F08172A6FE1F0E08015402
:1020D0000D0801540000015420010154C1A5FE1F48
:1020E00071A6FE1FD8A5FE1F86A6FE1F90A6FE1F86
:1020F0000F080154E8A5FE1F4A8810B5531C8C88B0
:102100009BB29C4208BF00230C889C421FBF023236
:1021100041F8220000204B8008BF072010BD038833
:102120004188994202460BD0991C013350F8210096
:1021300091889BB29942138003D10023138070478A
:1021400000207047184B24221A80184B80221A80D6
:10215000174A4FF480531380164A1380164A0023FF
:102160000A21138053809180144A138053809180F8
:10217000134A14491360144A1360144A1360144A32
:102180001360144A13700A7802F0FD020A70124AB2
:102190001370124A1370124A1370124A1370124AC3
:1021A0001370124A137070478EA6FE1F7CA6FE1F86
:1021B00074A6FE1F86A6FE1F3CA6FE1F08A6FE1FD5
:1021C00088A6FE1F0F08015494A6FE1F80A6FE1FBE
:1021D00078A6FE1F90A6FE1F72A6FE1F71A6FE1F08
:1021E00084A6FE1F8DA6FE1F8CA6FE1F04A6FE1F42
:1021F00070B50020FEF712FEC27883781F4C204D88
:1022000043EA0223238042780378012043EA022331
:102210002B80FEF703FE1B4A43881B49138002886C
:102220000A80288821880144914202DD13449842A3
:1022300021DB0020FEF718FE0120FEF715FE2088A6
:10224000124D03F0A3FC124B2860064660B9012230
:102250000A201A7003F09AFC002814BF00240224FC
:1022600003F09CFC2E6004E000241C7003F096FC3C
:102270002C60204670BD162070BD00BF8EA6FE1FCC
:1022800074A6FE1F7CA6FE1F86A6FE1F88A6FE1F44
:1022900070A6FE1F244B70B50020244C1870FEF76A
:1022A000CBFD0120FEF7C8FD206808B103F076FCE5
:1022B0001F4D286820B12368984201D003F06EFCBE
:1022C0001C4B18681E4638B12368984204D02B680E
:1022D000984201D003F062FC01F014FC164A174941
:1022E00000231360164A2360137033602B600A7852
:1022F00002F0FD020A70134A1370134A1370134A56
:102300001370134A1370134A13701348FFF707FF33
:1023100010B103F043FCF8E71048FFF700FF10B1DD
:1023200003F03CFCF8E770BD72A6FE1F94A6FE1FEA
:1023300078A6FE1F80A6FE1F88A6FE1F0F08015468
:1023400090A6FE1F71A6FE1F84A6FE1F8DA6FE1F6F
:102350008CA6FE1F04A6FE1F3CA6FE1F08A6FE1F9D
:10236000437903F00F03032B01D1FEF7F3BC0220E6
:1023700070470000F7B5304B1B7803F00F03012BBB
:10238000064653D02D4B1B78002B4FD02C4D95F883
:1023900000E0BEF1000F4BD102882A4F2A4839884D
:1023A000048813192144294C063301399BB289B2A0
:1023B00084F800E08B420CD203F1A84E94F800C0E0
:1023C0000EF5803E5FFA8CFC01338EF800C09BB2A4
:1023D000F0E70088063200F1A84092B200F58030A4
:1023E000314603F0F3FB00238DF80730184B1B78C0
:1023F000DBB28DF807309DF8073003F0080303F0D7
:10240000FF0243B9104B22701A883B8811491344CC
:102410002278D2B2CA54104B1A6812B10F4A002166
:1024200011601E6001232B70002002E0F02000E00C
:10243000072003B0F0BD00BFC1A5FE1F72A6FE1F9E
:1024400071A6FE1F7CA6FE1F86A6FE1FD8A5FE1F36
:102450000D080154FFFF005480A6FE1F88A6FE1F32
:10246000194B002270B51A70184B194D1868194E87
:102470001C4630B12B6823B93368834201D003F086
:102480008DFB28683368236028B1FFF773FF104B7A
:1024900000221A6005E01048FFF741FE08B1FFF77F
:1024A00069FF0E4C23786BB19A070BD523F002031A
:1024B00023700B4B1868FEF761FC18B1237843F0CA
:1024C0000203237070BD00BF71A6FE1F94A6FE1FFD
:1024D00078A6FE1F80A6FE1F08A6FE1F8DA6FE1F63
:1024E00088A6FE1F114B2DE9F0411C689846ACB13F
:1024F0000F4D2B7863B10F4F3E684EB90120FEF7A8
:102500009BFC0D4B01201B683B60FEF7ADFC2E7061
:102510002046FFF72FFF0023C8F80030074A137842
:1025200083F001031370BDE8F08100BF94A6FE1F85
:1025300071A6FE1F78A6FE1F80A6FE1F90A6FE1F96
:1025400070B5184B1B7803F00F03012B05460C46A2
:1025500026D0154A43791178134E490704BF01214B
:102560001170127803F00F03437143EA02134371B1
:10257000FFF700FF38B128460C49FFF7BDFD10B149
:1025800044F0800402E0337801333370E4B2230670
:1025900007D5074A137804F07F041C43147070BDFC
:1025A000F02070BDC1A5FE1F04A6FE1F08A6FE1FD9
:1025B0008DA6FE1F10B501884379802904464FEA95
:1025C000131209D923F00F03437101230422C3809E
:1025D00008230280038114E00F4B12B11978914255
:1025E00014D020460D491A70FFF786FD90B10423E0
:1025F00023806379208123F00F0363710123E3803B
:1026000020460021BDE81040FFF79ABFBDE810400A
:1026100003F0C4BA10BD00BF8CA6FE1F3CA6FE1F6F
:102620002DE9F743314F3B885B085B0003F1A8437A
:1026300003F580331C882E4B1B78A4B2CBB10A2043
:1026400003F0A4FA0546A0B100210A2203F0C9FA5A
:1026500004232B806B7923F00F036B710123EB8034
:1026600007232B8128460021FFF76AFF284603F045
:1026700095FA204BDFF898901B7813B91E4B1E7803
:102680001EB1012389F800302DE01C4B89F8006051
:102690001D880634A4B2AC42284628BF2C4603F05D
:1026A00075FA174B804618600028EAD03F8807F17A
:1026B000A84101F58031224603F088FA114B8DF8CC
:1026C00007601B78DBB28DF807309DF807301B07D9
:1026D00006D50D4A0D4B16703D445B5DDBB21370A1
:1026E0004046FFF767FF03B0BDE8F08374A6FE1F06
:1026F00070A6FE1F71A6FE1F8DA6FE1F8EA6FE1FD2
:1027000088A6FE1F05080154D8A5FE1FFFFF005430
:1027100084A6FE1F10B50F48FFF701FD044688B1DF
:10272000FFF71EFE0028F6D0042323806379208162
:1027300023F00F0363710123E38020460021FFF79C
:10274000FFFEE8E7044B1B781BB1BDE81040FFF724
:1027500067BF10BD3CA6FE1F84A6FE1F10B5044631
:10276000FDF7B4FD20B10389A34201D04068F9E729
:1027700010BD70B59489C4F30320E3B1072831D0AC
:10278000082805D11369188993691B7858430DE00F
:1027900001230020E5B2AB4208D81669062505FBE7
:1027A000036501336D889BB22844F3E70730C00806
:1027B000E9B9023070BD072802D1136958880EE0CC
:1027C00091B1082802D11369188908E0E4B28C425B
:1027D0000CD3136901EB410103EB41014888073039
:1027E000C01070BD002070BD012070BD184670BDC6
:1027F000027810B56424B1FBF4F31A4404FB1311FE
:10280000C9B20A2402704278B1FBF4F304FB13113D
:102810001A4430314270817010BD00002DE9FF4133
:102820001C46566993890F4619B1C3F30323072B3E
:1028300005D1304603F088FA85B20CBB51E0092B74
:1028400028D130461FFA81F803F07EFA01300644A1
:10285000012508E0304603F077FA0135ADB20130CA
:102860004545064416D833780233DBB2012B11D923
:102870004545EFD1304603F067FA85B234B155B122
:10288000204631462A4603F0A1F92AE0002D08BF70
:102890000C2526E024B3154B6A4603F1080E6D465D
:1028A00018685968164603C6083373453246F7D18F
:1028B000186830601B7933710DF109003946FFF754
:1028C00097FF2B4602AD1A4603CAAA4220606160F8
:1028D000134604F10804F6D11068206013792371BF
:1028E0000C25284604B0BDE8F08100BF5893FE1FB8
:1028F00083890069C3F30323082B02D129B1063071
:10290000704701EB410100EB410070472DE9F047B2
:10291000202686408146FDF7D9FCB6B20446002544
:1029200004B32389B3F5805F1AD3B9F1000F15D032
:10293000B4F80CA0C8460027BBB25FFA8AF29342F3
:102940000ED8F9B22046FFF7D3FF83881E4218BF86
:102950004FF000080137B8F1000FEDD10135ADB2ED
:102960006468DDE72846BDE8F08700002DE9F74FF1
:102970009A460B880C9F20268640B3F5805F8146DF
:1029800088461546B6B208D1FDF7A0FC044638B912
:10299000002F36D01B233B7033E01F4B1C6806E032
:1029A000012D25D92289B2F5805F03D26468002CFD
:1029B000F6D126E0B9F1000F1ED0B4F80CC0CB461A
:1029C0000027BBB25FFA8CF18B42EFD8F9B22046F8
:1029D0008DE80410FFF78CFF83881E4218BF4FF06C
:1029E000000B01379DE80410BBF1000FE9D103E0B3
:1029F0002389A8F8003009E0023D2AF8022BADB285
:102A0000D4E74FF6FF73A8F800300024024B2846A5
:102A10001C6003B0BDE8F08F40A7FE1F0A3070476E
:102A2000F0B58F89C7F30327002814BF10230023B4
:102A3000072F65D0012486B2B4425FD8082F0D69F4
:102A400016BF0622063502FB04552A88152A43D0F4
:102A50000ED8082A08D8072A30D2042A2ED0062AEF
:102A60001DD0032A42D11AE00B2A18D0112A07E000
:102A70002E2A14D006D81F2A11D0202A1ED01B2A95
:102A800034D129E0B2F5187F09D002D82F2A15D009
:102A90002CE0A2F2622EBEF1010F0FD926E003F165
:102AA0000F0EB4424FF6F0730EEA030323D20B2A43
:102AB0001ED0B2F5187F1BD010331BE003F11F0EA0
:102AC000B4424FF6E0730EEA030314D2A2F262227C
:102AD000012A0DD920330DE003F11F02B4424FF655
:102AE000E07303EA020306D2403303E0B44202D2A9
:102AF0006A8813449BB20134A4B29CE71846F0BD27
:102B00000020F0BD022934D004D8002952D0012978
:102B100005D051E003293BD022291BD04CE041F6DF
:102B20003243984208D1254B1B88002B44D0244BBC
:102B30009B8913F0020F33E041F6334398423BD1B7
:102B4000204B9B899A0737D51C4B1B88002B33D110
:102B50001D4B08E041F6334398422DD1194B9B8918
:102B60009B0729D5154B1B88002B0CBF122000207A
:102B7000704741F63243984201D1114B04E041F6CF
:102B80003343984218D10F4B9B8913F0040F07E091
:102B900041F63243984207D1094B9B8913F0080F45
:102BA0000CBF12200020704741F63343984203D1F6
:102BB000044BF2E70846704712207047C2A5FE1F7B
:102BC000DCA6FE1F98A6FE1FEAA5FE1F2DE9F04F0A
:102BD0009E8987B01F46C6F30323072B82468B4688
:102BE0000192109C9DF844800293F6B21FFA81F97D
:102BF00000F08781B0F5805FC0F08381BB691E78EB
:102C0000B8F1000F16D1B14500F277813846594628
:102C1000FFF76EFE83880BB9052077E1B14A127881
:102C200003F0070312EA430206D1002B0CBF062073
:102C30001A206BE1039601E003964E46AA4B1B68EF
:102C400033B118F100025046594618BF0122984787
:102C5000FD6955B1019ACDF840805046594623464A
:102C6000AC4607B0BDE8F04F6047BAF5805F02D2CE
:102C7000BBF1000F03D10023CB46019346E0594638
:102C80003846FFF735FE0BF1804CBB6942880CF1EA
:102C9000FF3C073253F82C100B8823804B8863804D
:102CA000D210201D0431043A02F090FF28462DE195
:102CB000BA69BBF1000F2CD0BAF5805F2BD35FFA55
:102CC0008BF0394605920493FFF7AAFE049B059A00
:102CD00005465FFA8BF1384604930592FFF708FE2C
:102CE0008049059A844608789CF8041001F0070191
:102CF00010EA4103049B00F0CE80CB450FD0B8F121
:102D0000000F0AD10BF1010B1FFA8BFBB345CFD992
:102D1000EEE05D46DDE70025DBE7CB45F2D3BBF116
:102D2000000F07D10299072904D0BDF80C2024F820
:102D3000022BE7E7BCF80030C5F30F10B3F5E06FE6
:102D400002EB40010ED3BCF802E0BEF1080F03D83D
:102D50000EF12F039BB205E0BEF1100F63D0BEF160
:102D6000200F68D0112B70D013D8052B3FD007D877
:102D7000022B01D853B33AE0032B54D0042B1EE0AE
:102D8000082B02D8072B4ED355E0092B6BD00B2B09
:102D90001AE02D2B2BD00BD81E2B28D004D8152BA6
:102DA00053D01B2B51D0AAE01F2B3CD0202B06E088
:102DB000372B06D8302B1AD22E2B34D02F2B3AD0CB
:102DC0009DE0A3F51873032B4DD998E0B8F1000FDF
:102DD00000F09580BCF80230180703D01D44290785
:102DE00008BF0234C3F3031304EB430478E0BCF8D8
:102DF00002E03E4932F8100031F81E1005F00F03D2
:102E0000994089B203B9238022880140B8F1000FAC
:102E100000D1194111432180BCF802301D442A071A
:102E20005ED102345CE02B077FF4F6AE32F810304E
:102E300024F8023B54E02D077FF4EEAE32F8103058
:102E400023804B88638004344AE02B077FF4E4AE90
:102E500032F8103023804B8863808B88A380CB8826
:102E6000E38008343CE02D077FF4D6AEBCF80220A6
:102E7000CDF810C007322046D21002F0A7FEDDF8D0
:102E800010C0BCF802301A09180704EB420427D01E
:102E90002378238024E015F00F0208BF2280BCF8BD
:102EA0000220110705D0154415F00F0504BF6580F9
:102EB00002340022BCF80210D0B2C1F303118842E0
:102EC00002F1010203DA002124F8021FF2E7BCF844
:102ED000042012F0070F0CBF06221A22019211E7FC
:102EE00001230FE7C1A5FE1FE8A4FE1FB26202087E
:102EF000002B019818BF002008E0112006E01820E0
:102F000004E0B8F1000F7FF487AE7CE607B0BDE8BF
:102F1000F08F00BF2DE9F04F9A469B898BB0174682
:102F2000C3F30322DBB20593072A8BB20646894618
:102F3000149C9DF85480069202931DD0DAF8183044
:102F400093F800B0BBF1000F57D1A0F5E053103B50
:102F50001F2B50D9A0F5B053B3F5007F4BD3A0F58C
:102F6000D053B3F5007F46D3059B4FF2300B584545
:102F700018BF00239B4640E0B8F1000F01D00520A8
:102F8000E6E1C346029B5B4500F2CF8149465046CD
:102F9000FFF7AEFCB3498388097803F0380211EAE1
:102FA000920106D1002A40F0C281002BE7D0072011
:102FB000CEE1DDF808B0B9F1000F19D0A6F5E05365
:102FC000103B1F2B0DD9A6F5B053B3F5007F08D3E6
:102FD000A6F5D053B3F5007F03D34FF230039E42E2
:102FE00014D1DAF818301B78003318BF01230EE033
:102FF000CDF810900CE0DDF814B0B8F1000FC1D09E
:10300000B9F1000FDAD10FB194F800B000230493A6
:10301000DAF8205055B1CDF80080304649463A469E
:103020002346A847002800F0748191E1002F00F0AA
:103030007A810723029F03932B465F4500F2688144
:10304000FAB21146504609930892FFF751FC089ACC
:10305000079051461046FFF7E3FCDDF81CC081499C
:10306000BCF804200978DAF8185002F0380211EAA6
:103070009203099B00F03781002F00F06481C0F3B8
:103080000F1205EB4205029A974213D0B8F1000FD8
:1030900000F03B81029A9742C0F0378157B9069BF6
:1030A000072B07D023880599DAB29142C0F04181FD
:1030B0002B80D4E0BCF80030B3F5E06F0CD3BCF843
:1030C0000220082A03D802F12F039BB204E0102A41
:1030D00075D0202A00F0D280112B00F0E28014D8A5
:1030E000052B42D007D8022B01D87BB33DE0032B40
:1030F00065D0042B21E0082B02D8072B5FD3BDE05D
:10310000092B00F0DB800B2B1DE02D2B2DD00DD8D3
:103110001E2B2AD006D8152B00F0C3801B2B00F0E5
:10312000C08008E11F2B4AD0202B06E0372B07D8A0
:10313000302B1AD22E2B42D02F2B00F09F80FAE09A
:10314000A3F51873032B40F2B980F4E0B8F1000F37
:1031500000F0F180BCF802301D0703D018440107CD
:1031600008BF0234C3F30313BAE0BCF802203E4B9D
:1031700033F812302A8800F00F0103FA01FE22EA28
:103180000E020792B8F1000F05D023880EEA030E55
:1031900042EA0E020AE0B4F800E03EEA030240F020
:1031A000CC800EEA0303079A8B401A4392B22A801E
:1031B000BCF802301844020740F0A6804FE0030735
:1031C0007FF4DDAE049B22881BB12B88934240F034
:1031D000B680A6F5E053103B1F2B0CD8A2F5B053D8
:1031E000B3F5007F07D3A2F5D053B3F5007F02D328
:1031F000002A40F0A280A6F5E153123B012B2DD806
:10320000012F10D12B88934209D0114630460792E6
:10321000FFF778FC079A0390002840F09280134B48
:10322000012119701AE0082F18D111481149DFF84F
:1032300048E0C0F810E0002312F0020F4361436041
:103240004B61C1F810E04B601FBF4385038580F8D8
:1032500040304B851CBF0B8581F840302A800234FA
:1032600052E000BFC1A5FE1FB262020820A7FE1FE8
:10327000DCA6FE1F98A6FE1F48E8010001077FF4A8
:103280007EAE049B3BB12A8823889A4257D16A8834
:1032900063889A4253D123882B8063886B800434DF
:1032A00032E002077FF46BAE23882B8063886B804B
:1032B000A388AB80E388EB80083425E003077FF424
:1032C0005EAEBCF80220CDF81CC00732284621466D
:1032D000D21002F07BFCDDF81CC0BCF802301B09E8
:1032E00004EB430410E00FB902340AE0BCF80220FA
:1032F000150703D01044010708BF0234120904EB7C
:1033000042041822039200E001230137BFB294E681
:10331000BBB1114B1B6833B118F10002304649466E
:1033200018BF01229847002012E0112010E01A2057
:103330000EE013200CE018200AE0122008E01C2008
:1033400006E0039804E0029A002A7FF49FAEA6E606
:103350000BB0BDE8F08F00BF54A5FE1FF8B5079C69
:10336000069EE58860294ED000293ED000272772AE
:1033700020BBC5F30B0545F440554029E58019D124
:10338000711E032909D842F04302C6F104060A233C
:1033900042EA8606238026721FE0B3422CBF06F164
:1033A0000A030A33A68142F04102360C2380E681EB
:1033B000227212E00A232380602322E00A23238062
:1033C000237A63F07F032372134BC5F30B0545F497
:1033D000005553F82030E580E36020460221FFF7D6
:1033E000AFF8C0B10D4B1C60F8BD0028E6D10A2330
:1033F000C5F30B052380237A45F44055E58043F05F
:1034000020032372E9E70028D8D1C5F30B0545F462
:103410004055E580E1E7F8BDD4620208B8A5FE1F7B
:103420002DE9F04F89B0037A039303880593984BF5
:1034300006931A780546002A40F00E81039B03F09C
:10344000E00703F01003DBB2202F049308D002D86A
:10345000002F69D0B7E1402F02D0602F64D0B2E1D5
:10346000AA7A6B7A95F80B8003EB02231FFA83FA92
:103470005046FFF773F98146002800F0A081037BD6
:10348000984500F2ED80049B504613F1000B414635
:103490004A4618BF4FF0010BFFF76BF9402F064665
:1034A00017D1059B0A2B40F0D980431E032B06D869
:1034B000002305F10C0CAB81EB81044697E1754BC1
:1034C0001C88103C8442C0F08F8105F1100C002351
:1034D0008DE1202F40F0A482039B9B070BD5059B19
:1034E0000A2B40F0BB80039BC3F38104C4F10404A6
:1034F00005F10C0C97E2AB89EC8903EB0444664BB5
:103500001B8804F110029A42059A8CBF063B04F115
:103510000A039A4240F0A280059B0A3B9C4205F1B7
:10352000100C00F24C827EE25C4B1A78BA4298464C
:1035300040F049815A4B04991A78002F37D18A42BA
:1035400000F03981544A16889DF810201A70554BA6
:103550001868093EB6B29C46002800F02E81524BF6
:10356000039C1968514B1A6814F0010FA2EB010279
:103570004F4C15D0B24277D8059EA6F1030A5245AA
:1035800006D8039E86F00E06C6F34206B24203D06A
:10359000072A69D9524567D100262670164689E068
:1035A0004FF0010EB24284F800E05DD982E08A4219
:1035B00000F00D81374A3C4E14889DF810201A7097
:1035C0003A4BDFF8E0901A683368DFF8E4A0093C72
:1035D000A4B2E1188A42D9F8001036BFD41A0122E9
:1035E000002219448AF8002005F10900224602F061
:1035F000EDFAEB889AF80010C3F30B0343F4405341
:10360000EB8000232B7211B19DF8103002E0049B77
:1036100043F00103062C2B729FBF2A7A0A232B80CA
:10362000C4F1070395BF42EA4303E31C2B722B80CE
:10363000012906D133681C44346000242646234601
:10364000C8E00024D9F8000002F0A8FAC9F8004048
:10365000346088F80040F1E70924EAE10824E8E151
:10366000002426461123B5E00E23114A0D4E0024F6
:1036700014703068094A147020B1039302F08EFA76
:10368000039B3460084A002414602646A2E000BF71
:10369000B194FE1F7CA6FE1F8EA6FE1F3FA7FE1F35
:1036A0003EA7FE1F50A7FE1F2CA7FE1F34A7FE1F1C
:1036B00031A7FE1F0844324605F109010593CDF8F4
:1036C0000CC002F083FA2478DDF80CC0059B002CB6
:1036D00054D1DFF83CA3DFF83CB3DCF80020DFF87E
:1036E0002CC3BAF800009BF8001000929CF8002050
:1036F000DFF8249301921A68D9F80030CDF80CC095
:10370000FFF708FCFF28DFF814832CD1B14BDDF85C
:103710000CC002221A709CF80030AF4A003318BF68
:1037200001231370AD4B9BF800201A70AC4BBAF814
:1037300000201A80AB4B1A68AB4B1A60AB4BD8F821
:1037400000201A60D9F800301A6AA94B1A60A94BF8
:1037500001221A70A84B1D60A84B1C70A84B1C704E
:10376000A84B1C6065E10390D8F8000002F016FA3F
:10377000039BC8F80040002B7FF477AF0A232B800F
:10378000EB88C3F30B0343F44053EB809E4B1B7851
:103790000BB1302300E020232B72984B1B78012BB8
:1037A000984B03D11A6816441E6046E700241C603B
:1037B000934B1C7042E7012357E7032355E7044668
:1037C0000646082306E000242646032302E00024E0
:1037D000264601231846009601953946049AA3B25D
:1037E000FFF7BCFD002424E101234FF0000CBBF1E6
:1037F000000F03D0B8F1010F00F2E980002B00F0B8
:1038000081807E4A012313707F4A13707F4B83F8B7
:1038100000B07F4BA3F800A07E4B83F800807E4B66
:10382000C3F800906F4B402F14BF224632461A60F7
:103830007A4A0692106818B1079302F0AFF9079B15
:103840001868013020F0010002F0A0F9069ADFF8B4
:10385000CCC11060034628B9BBF1000F14BF05238B
:103860000423B7E7402F3FD18DE8080850464B4668
:1038700041463246CDF814C0FFF7A8F9DDF814C070
:10388000034660B90390DCF80010224605F11000F1
:1038900002F09CF95A4A039B602111702FE0FF2827
:1038A0002DD14C4B04221A704B4BDCF8002083F8CE
:1038B00000B04A4B83F80080494BA3F800A04A4B64
:1038C0001E604A4B1A604A4BD9F81C201A60494BBB
:1038D00001221A70484B1D60039B23F00F032B72CB
:1038E000474B60221A707DE7059BA3F10A0422462C
:1038F00005F1100102F06AF9414A00231370414AB0
:10390000146067E746B9424BA3F800A0414B83F827
:103910000080414BC3F80090402FCDF800C0CDF897
:1039200014C0CDF804B05046414620D14B46324633
:10393000FFF74CF9FF280346DDF814C07FF44AAFC7
:10394000244B03221A70244BD9F81C2083F800B0B2
:10395000224B83F80080224BA3F800A0224B1E606C
:10396000224BC3F800C0224B1A6001231EE04B46D5
:103970002246FFF7CFFAFF280346DDF814C07FF494
:1039800029AF144AD9F8201001231370124A82F883
:1039900000B0124A82F80080114AA2F800A0124A30
:1039A0001460124AC2F800C0114A1160069A1370DE
:1039B000114B1D60039B23F00F032B7212E7BBF129
:1039C000000F3FF41EAFB8F1010F7FF61AAF0523C9
:1039D00000E700BF3CA7FE1F3DA7FE1F70A7FE1F0C
:1039E0006EA7FE1F34A7FE1F4CA7FE1F28A7FE1FB1
:1039F00038A7FE1FB194FE1F48A7FE1F31A7FE1F68
:103A00003FA7FE1F2CA7FE1F3EA7FE1F30A7FE1FCD
:103A100054A7FE1F6CA7FE1F68A7FE1F50A7FE1F1E
:103A200004464FF0000CBBF1000F3FF46BAF0023D6
:103A3000E0E6204609B0BDE8F08F00BF2DE9F3476E
:103A4000264E33788A4680461146002B43D0244BBD
:103A5000D3F8009099F8083003F0E007402F03F006
:103A60001003DDB22AD11F4B1C88103CA4B2544570
:103A700016D21D4A012313701C4A13701C4B1D7073
:103A80001C4BC3F800A01C4B60221A701B4B09F1A1
:103A900010002246196002F099F8194B1C600EE0E4
:103AA0000AF1FF33032B94BF09F10C0009F1100058
:103AB000824204D0524602F089F800E0002400233C
:103AC0003370CDF800A0CDF80490404639462A4620
:103AD0002346FFF743FC02B0BDE8F087B194FE1F18
:103AE00048A7FE1F7CA6FE1F31A7FE1F3EA7FE1F94
:103AF00030A7FE1F34A7FE1F3FA7FE1F50A7FE1FC3
:103B00002CA7FE1F38B5174B1A781D4672B1164CFC
:103B1000206858B1154B1B68984207D0144B1B689E
:103B2000984203D002F03AF800232360114B00249E
:103B30001C70114B2C701C70104B114D1C80114BC4
:103B400028681C70104B1C60104B1C60104B1C60D4
:103B500010B102F023F82C600E4A002313600E4AC5
:103B6000137038BDB194FE1F48A7FE1F94A6FE1F18
:103B700078A6FE1F3CA7FE1F3DA7FE1F6EA7FE1FD7
:103B800050A7FE1F70A7FE1F4CA7FE1F28A7FE1FF1
:103B900038A7FE1F2CA7FE1F3FA7FE1F2DE9F043ED
:103BA000057A85B005F07F050023052D8DF80D30D1
:103BB0000446038803D1092B40F22F818AE0072BAA
:103BC00040F22B81032D00F08580052D00F08280CE
:103BD000012D40F003818389052B00F20281914D74
:103BE000024600F10807106851682E4603C60832E5
:103BF000BA423546F7D1106830609288B2808A4E5A
:103C00006BB9338004F10C071D46E8B2FEF77EFE67
:103C10000135052D27F8020FF7D1122042E0B6F842
:103C20000090824FDFF81482013B03F0FF05B9F1E9
:103C3000000F0BD03A88B8F80010ADF80E100C3A0F
:103C400092B204F10C0309F1FF3919E02846FEF79E
:103C50005DFE3988A1F10E0292B240004FF480530C
:103C60009042ADF80E3004F10E0309DD0C3989B233
:103C700001F1FF3E801A704490FBF1F1318001E0C8
:103C8000A6F800900DF10D01009128460DF10E01EE
:103C9000FEF76CFEBDF80E30A8F800303B88063BFE
:103CA000181A80B29DF80D302080002B40F09980CA
:103CB000238923F07F0242F002022281328862814E
:103CC000002A00F08E8023F0FF0343F0820323815B
:103CD000822187E0A089ADF80E00B0F5805F01D2A7
:103CE00005237CE0FEF73AFD0646002874D0032D3C
:103CF0001CD1FEF793FE00210368C4F80E30BDF816
:103D00000E000B463246FEF789FD484B1B880C30EF
:103D1000053B80B2834250DDBDF80E0000213246E3
:103D200004F11203FEF77AFD0C303FE0A77BFEF7AB
:103D300075FE83789F423BD839463046FEF7D8FD62
:103D4000036823618388A382A37BE3813046FEF767
:103D500065FE4388C3F30323083B012B0FD877B9D3
:103D6000334B04F1160203F10C0153F8040B42F833
:103D7000040B8B42F9D11B7813701C2020E0002328
:103D8000BDF80E0039463246FEF748FD274B1B882A
:103D90001030053B80B2834211DDBDF80E0039467C
:103DA000324604F11603FEF739FD103080B207E009
:103DB00011238DF80D30002002E00C2000E01020CF
:103DC0009DF80D306BB9638123892080013523F084
:103DD0007F031D43258104E0082300E003238DF8C1
:103DE0000D3002219DF80D207AB10A23238011485D
:103DF000238950F82220E26023F07F0343F0070379
:103E0000094A23810023638113802046FEF798FB33
:103E100020B1094B00201C6000E0062005B0BDE881
:103E2000F08300BF58A7FE1F44A7FE1F7CA6FE1FFD
:103E30005893FE1FD4620208B8A5FE1F24A7FE1FD8
:103E400008B5074B984209D14FF4803000F088F94B
:103E50004FF48030BDE8084000F0C4B808BD00BF92
:103E60000040044010B5054A0549AA2355241360B3
:103E70000C60A0211160036010BD00BF5455000C00
:103E8000A8AA000C30B5064B064AAA245521802565
:103E90001C6011601D601C6030231160036030BD28
:103EA0005455000CA8AA000C014BF5221A6070476B
:103EB0005455000C41F21003014AD058704700BF1E
:103EC0000010005838B50B4BF5221A6050221A60CA
:103ED0000023CA18CD585468074A0833B3F5807FC9
:103EE00015605460F5D1FFF7BDFF044B1B68DB077D
:103EF000FBD438BD5455000CF055000C1020005870
:103F000008B5054BF5221A60FFF7BCFF034B1B6891
:103F1000DB07FBD408BD00BF5455000C102000582F
:103F200001F0FC030344F0B501F003041E69E40052
:103F3000F825A54026EA05051D61466F4F000325BB
:103F4000BD4026EA05054567164DA84203D005F594
:103F50008075A84207D1056E012606FA01F125EA0F
:103F60000101016618E092F90050002D14DA55683D
:103F70008D404560CD0800EB850001F00701066C1F
:103F8000890007258D4026EA05050564167A056C2B
:103F900006FA01F12943016412781969A2400A4323
:103FA0001A61F0BD008E024810B50446FCF728F8EF
:103FB000064B07481B68B3FBF0F303FB04F0002338
:103FC000834202D000BF0133FAE710BDC0FF0320D7
:103FD00040420F00024A536918435061704700BFC6
:103FE00074400050020F0C235343024A20F07040EB
:103FF000985070471444005020F070420C23000F7A
:10400000584303F1A04303F58843C3581A4214BF31
:104010000120002070470000034AD36823F4803356
:104020001843D060704700BF00460050034A9369B0
:1040300023F4803318439061704700BF004600505E
:10404000034A536A23F4403318435062704700BF59
:1040500000460050064AD36820B923F4807323F049
:10406000010303E043F4807343F00103D36070471E
:1040700010470050054BD3F8C4301B07FAD4044A4C
:10408000D36823F040031843D060704700400050CD
:1040900000430050054BD3F8C4301B07FAD4044A40
:1040A000D36823F080031843D0607047004000506D
:1040B00000430050034AD368013823F0FF03034351
:1040C000D360704700460050034A136A013823F05A
:1040D000010303431362704700460050034A13690B
:1040E000013823F001030343136170470046005079
:1040F000034A5369013823F00103034353617047B6
:1041000000460050034A9369013823F00703034334
:104110009361704700460050034AD369013823F089
:104120003F030343D361704700460050034A536A7C
:10413000013823F0FF0303435362704700460050E9
:10414000034A936B013823F00303034393637047DF
:1041500000460050014B5860704700BF00460050B9
:10416000020F0C235343024A20F0704098507047CE
:10417000484600500F4B5A6942F001025A615A6991
:1041800001380139000642F0100240EA01215A616B
:1041900059615A6942F040025A615A6922F010028C
:1041A0005A615A6942F480225A611A695207FCD551
:1041B000704700BF1047005010B50B4C63680128D2
:1041C00043F4801363600AD1636823F4801363604F
:1041D0006420FFF7E9FE636843F400236360642012
:1041E000BDE81040FFF7E0BE104700500A4B1A68C8
:1041F000D20704D5094B1A68900506D470470122EE
:104200005A601A68D107FCD5F4E74FF400729A603F
:104210001A689205FCD470470042005000440050D8
:10422000034B186880F00800C0F3C000704700BF5F
:1042300000430050104B4FF40002DA600F4AD1697E
:1042400021F03001D16159680802FCD50A494FF4C8
:104250000030C860082151605A689103FCD5064AB5
:104260004FF40021D1600549CA6842F00802CA60D3
:104270005A681203FCD57047744000500043005048
:1042800070B50C4D0C4E6B6823F480336B60746812
:1042900001F022FB094BB0FBF3F024F4702301384A
:1042A00023F0300343EA004373606B6823F4003368
:1042B0006B6070BD1047005000470050A0252600DD
:1042C000044B186800F46070A0F5607358425841C0
:1042D000704700BF10470050034A536823F48033EF
:1042E00023F002035360704710470050034A53689D
:1042F00043F4803343F0020353607047104700508B
:10430000054A9368013823F4FE0343EA00439360AF
:104310003220FFF749BE00BF104700502DE9F041A1
:104320000C46054690461F46069EFFF793FE012C5D
:10433000314C52D135B901F0CFFA304DB0FBF5F028
:10434000800501E04FF0C060636843F001036360E3
:10435000636843F010036360A168294B08F1FF32E2
:104360000B4043EA02637A1E43EA02227843182391
:10437000B0FBF8F5B5FBF3F39B0D013B42EA0343B9
:10438000A360636843F040036360636823F0100335
:104390006360636843F4802363602368164A5907A7
:1043A000FBD5536823F0010353602368DA07FCD47C
:1043B0003C20B5FBF0F0800D864201D2FFF7A0FF54
:1043C0005A20B5FBF0F0800D864201D2FFF798FF2E
:1043D0003046BDE8F041FFF793BFA368013E23F0EC
:1043E0007F031E43A660636843F001036360236894
:1043F000DB07FCD5BDE8F0811047005040420F00BC
:10440000FF8080F037B504460020FFF705FEFFF778
:10441000EDFEE3791BB9607AFFF73CFE06E0FFF79B
:1044200009FFFFF7FDFE0028FBD0F4E71B4BD3F894
:10443000C430002BFAD1207AFFF7BEFE207CFFF7B4
:1044400039FE607CFFF74AFEA07CFFF73DFEE07C72
:10445000FFF74EFEA37923B9E3784BB9FFF746FF88
:1044600010E0FFF70DFFFFF72BFF0028FBD0F3E76D
:10447000FFF732FFA578A088E1786278237800956D
:10448000FFF74CFFE068B0F5803F01D1FFF7C4FDB6
:1044900003B0BDE83040FBF7B3BD00BF00400050A3
:1044A00010B504461020FFF755FE124B9C4204D174
:1044B0000420FFF755FE042016E00F4B9C4204D168
:1044C0000820FFF74DFE08200EE00C4B9C4204D163
:1044D0001020FFF745FE102006E0094B9C4207D153
:1044E0000848FFF73DFE0748BDE81040FFF77ABDDA
:1044F00010BD00BF00C0004000000140004001406E
:10450000004000480100001038B504460D46FFF792
:10451000C7FF4FF48073E360236823F4404343EA0A
:104520008531216038BD0B6843614B79C3F340137B
:104530001B0543600B7903F00F0343624B7903F0D3
:104540000F0303624B79C3F3001383610B791B09DB
:10455000C3627047092930B59CBF094C094DD0F89A
:10456000A83099BF645C35F811104FF440510C2409
:1045700023EA0103A2401A43C0F8A82030BD00BFBF
:104580004C6302085663020810B504461020FFF77A
:10459000E1FD0B4B9C4204D18020FFF7E1FD802020
:1045A00008E0084B9C4209D14FF48070FFF7D8FD1A
:1045B0004FF48070BDE81040FFF714BD10BD00BF80
:1045C000000002400040024038B504460D46FFF7A7
:1045D000DBFF4FF48073E360236823F4404343EA36
:1045E0008531216038BD012303610B6843614B7B3A
:1045F000C3F300131B0543600B7B03F00F034362FF
:104600000B7B1B09C3624B7B03F00F0303624B68F8
:1046100083618B6883F0140383647047036823EA23
:10462000114389B2194301607047436823F00303C3
:10463000194341604369012A0CBF43F4806323F4AA
:10464000806343617047436823F00C0343EA8101B0
:104650004160436923F4407343EA02224261704798
:10466000436823F4405343EA013141607047436992
:1046700023F0800343EAC1114161704710B54468DB
:1046800024F4402444EA814141604169012A0CBF7D
:1046900041F0807221F080729DF8081011B142F44F
:1046A000000201E022F4000222F0C05242EAC3629A
:1046B000426110BD436823F4404343EA81314160C5
:1046C0007047436823F4407343EA01214160704717
:1046D000436823F4406343EA8121416070474368A3
:1046E00043F4803343607047436843F400334360CE
:1046F000436912B143F4001301E023F400130129CC
:104700000CBF43F4800323F48003436170470368C4
:1047100010B54C7823F4402343EA8443547823F4BF
:10472000401343EA04538C7823F4000343EAC45350
:10473000947823F0807343EA0463CC78097823F0FB
:10474000C05343EAC463D478127823F0C04343EAE9
:10475000447323F0F00343EA011323F4706343EA44
:104760000223036010BDF0B54C1EE4B26600F6B241
:1047700006F1100C056857785FFA8CFC032303FAE6
:104780000CFE153107FA0CF725EA0E0E5FFA81FCD4
:10479000012505FA0CF54EEA070E2EEA0507957875
:1047A0001936F6B205FA0CF5B3403D4325EA03018C
:1047B000D3781278B340A4001943E4B20F23A34086
:1047C00021EA0303A24013430360F0BD4163704735
:1047D00009B9C2637047426470470000092930B5C7
:1047E0009CBF094C094DD0F8A83099BF34F811404E
:1047F000695C0C214FF4405423EA04038A401A43B5
:10480000C0F8A82030BD00BF6A6302087E630208BA
:104810004B6803658B6843650B68C3647047000091
:10482000064808B5FFF79CFC0448FFF7DBFB03488C
:10483000FFF7E2FB0028FAD108BD00BF000400200A
:1048400010B50446FFF7ECFF0F4B2268C3F80825AC
:104850006268C3F80C25B3F8022592B242F4806274
:10486000A3F80225A268C3F80825E268C3F80C255E
:10487000B3F8022592B242F48062A3F80225B3F89D
:104880000225D204FBD410BD00000154034AD2F823
:10489000043223EA0000C2F8040270470000015409
:1048A000C00000F1A84000F58430C37943F0010353
:1048B000C371704770B505460C461646FFF7C0FA3F
:1048C0002868A2000F23934020EA03013368934035
:1048D0000B432B600434736845F8243070BD70B509
:1048E0000C46164605460834FFF7AAFA336845F821
:1048F000243070BD036842689A6082689A61002023
:104900007047000010B5064C2046FFF729FC2046F2
:10491000FFF768FB034A136823F00103136010BD1F
:10492000400000200000025030B562B194070AD167
:1049300005680C4654F8040B2860101B0818F9D1C0
:10494000AA691A6030BD022030BD01F0FC03184492
:1049500001F0030110B5C9000469F8238B4024EA73
:104960000303036103698A401343036110BD436F6E
:10497000490010B503248C4023EA04034367436FC6
:104980008A401343436710BD08B50C4B1A680AB937
:104990000B4A1A601A680B49C31C23F00303134423
:1049A0008B4203D2054910460B6008BD01F0C2F8E6
:1049B0000C2303604FF0FF3008BD00BFB494FE1F0E
:1049C00000000020C0FF0320704790F8263033B16C
:1049D00090F821302BB942690121D16001E001201A
:1049E0007047002070474369428C5A630022DA63A3
:1049F0000369C2689B681A61704738B5044600694C
:104A000000F016FB2369217E9A6801238B40D36056
:104A1000E16905466069FFF786FD2046FFF7E3FF81
:104A200094F8253063B194F8202060690021FFF7E5
:104A300091FD6269D2F8A43043F00103C2F8A430BA
:104A4000636994F8241002221A61012284F8262056
:104A500001B1DA60284638BD90F8262022B990F8D6
:104A600021300BB9FFF7C9BF00207047F0B52249CC
:104A7000224C242202FB00122368956926460BB9BA
:104A80002260F0BD1C469A69AD1A002D22DCD3F8D5
:104A900004E024224243BEF1000F08D08F18CEF864
:104AA00000708B50C7F804E022465F6002E08C5033
:104AB0000A446260242444430F1951F804E0DEF8EC
:104AC00018402C44BC61DEF818703C1BCEF818402E
:104AD000144607E01A683AB9242202FB0012536018
:104AE0001A609561012200E000221B680BB1002AC8
:104AF000C9D03460F0BD00BF74A7FE1FC094FE1F74
:104B0000104B2422504330B51C181958626852B912
:104B10000D4D296001B930BD8D69A4694A602C44EE
:104B20008C611A5030BD116009B9616030BD1958EF
:104B30004A601958A2698D692A448A6100221A5074
:104B4000626030BD74A7FE1FC094FE1F214A70B57D
:104B5000214D13682C6801331360002C39D0A369F0
:104B6000012B02D9013BA36170BD0023A361A6699B
:104B7000002E2ED194F820306BB16069FFF7C0FF92
:104B8000164962696673012303FA02F20B6823EA8D
:104B900002030B601AE0237B43B9637B012B15D121
:104BA0006069FFF7ADFF022363730CE0012B10D1A6
:104BB000637B012B0AD16069FFF7A2FFE369A36160
:104BC0006069FFF753FFA368206998472C68002CA1
:104BD000CDD170BDB894FE1FC094FE1FBC94FE1FC3
:104BE000027810B532BB144B14491A60144B59604B
:104BF0001449FC2481F823409A6007221A60CB688C
:104C0000C3F302230BB1591E00E01946C3F1070399
:104C1000062B4FF0010228BF062302FA03F3013BE3
:104C20008B409B000749DBB281F82330064B002103
:104C300019600270002010BDC094FE1F7F32020078
:104C400010E000E000ED00E0BC94FE1F037F03F0E5
:104C5000FD03012B0ED1417B426803FA01F1D160C3
:104C6000026892F828200AB98268D3600223037789
:104C7000002070470120704773B5057F0446002D62
:104C800040F07A810368D3F88C0000F0C1F9064641
:104C9000002840F06E812368A068996CFFF7A3FCA0
:104CA0002368A0685988FFF791FD2368A0689A8857
:104CB0003146FFF78DFD2368A068DA880121FFF7F0
:104CC00087FD23689A6CD27812F0060F03D06068D3
:104CD000D96BFFF7A3FC2168A06891F84420D0F8B5
:104CE000B430096C520002F0060223F006031343AD
:104CF000C0F8B430636822691A6162691A61FFF70B
:104D000087FD2368A068DA690121FFF72CFD23687D
:104D1000A0681A6A0221FFF726FD2368A0685A6A74
:104D20000321FFF720FD236893F8281021B1A06824
:104D300093F82920FFF779FC236893F82A1021B112
:104D4000A06893F82B20FFF77EFC236893F82C10C3
:104D500011B1A068FFF7BCFC236893F82D1011B1C6
:104D6000A068FFF7AEFC236893F82E1011B1A0687D
:104D7000FFF7A0FC236893F82F1041B1A068FFF75C
:104D80006FFC2368A06893F83010FFF770FC23686D
:104D900093F8311041B193F8322093F833300093F7
:104DA000A0680323FFF76AFC236893F83720032ADF
:104DB0000FD193F8391093F83820A068FFF794FCCE
:104DC000236893F8363023B1A268536943F4F01393
:104DD000536123689A8E3AB1A068196A5A6AFFF73C
:104DE00096FCA068FFF77BFC2368A0685A7C002132
:104DF000FFF7F4FC2368A0689A7C0221FFF7EEFC21
:104E00002368A068DA7C0321FFF7E8FC2368A06828
:104E10001A7D0421FFF7E2FC2368A0685A7D052172
:104E2000FFF7DCFC2368A0689A7D0121FFF7D6FC20
:104E30002368A068DA7D0821FFF7D0FC2368A0680A
:104E40001A7E0921FFF7CAFC2368A0685A7E0A214E
:104E5000FFF7C4FC23681A7A32B1A168D1F8A42004
:104E600042F00102C1F8A4205A7A32B1A168D1F807
:104E7000A42042F00402C1F8A4209A7A32B1A168B9
:104E8000D1F8A42042F00802C1F8A420DA7A32B1A5
:104E9000A168D1F8A42042F01002C1F8A4201A7B26
:104EA00032B1A168D1F8A42042F02002C1F8A420B8
:104EB0005A7B32B1A168D1F8A42042F00202C1F8B5
:104EC000A4209A7B32B1A168D1F8A42042F4807268
:104ED000C1F8A420DA7B32B1A168D1F8A42042F451
:104EE0000072C1F8A4201A7C32B1A168D1F8A420C4
:104EF00042F48062C1F8A42093F84C202AB1186DC6
:104F000093F854109A6DFFF70BF8236893F85C2020
:104F10002AB1186E93F864109A6EFFF701F82368AF
:104F200093F86C202AB1186F93F874109A6FFEF7FB
:104F3000F7FF236893F87C203AB1D3F8800093F808
:104F40008410D3F88820FEF7EBFF2368996CD3F820
:104F50008C20097B1268187801F00F01CA40226288
:104F60000122227748B1204602B0BDE87040FFF729
:104F70006DBE2577012000E0022002B070BD000068
:104F8000204BF0B5D968057842788778C1F30221C3
:104F9000C1F1070EBEF1060F28BF4FF0060E01B19A
:104FA0000139012404FA01F3013B04FA0EF403EA87
:104FB0000706631E13408B406AB2002A43EA0603C9
:104FC0004FEA8303AFBF02F1604205F00F050E4ABE
:104FD000DBB2A5BF02F56142DBB2535582F8003364
:104FE000C3786BB1027853B2002BA1BF012102F04C
:104FF0001F0201FA02F25B09A4BF044941F8232011
:105000000020F0BD00ED00E014ED00E000E100E064
:10501000437B10B504464BB98068217BFFF7D4FA77
:10502000A3684FF48072DA6001236373002010BD1F
:10503000437B10B504464BB98068217BFFF764FAC7
:10504000A3684FF48072DA6001236373002010BDFF
:1050500038B50024104DAB68A34216D0EB68E3408E
:10506000DB0712D5FEF720FF04F540500430800323
:10507000FEF746FFFEF71EFF20280BD1012303FA9F
:1050800004F2EB6823EA0203EB600134042CE1D163
:10509000002038BD042038BDEC93FE1F2DE9F04FF1
:1050A000057885B08246002D40F08780454F464CFC
:1050B00046497D6041F2180265608B58DFF818811F
:1050C00023F00F0343F001038B508B5843F400434C
:1050D0008B50FFF717FC3E48FFF70CFC012308F547
:1050E000405603FA05FB4FF00009D6F804C0BCF1A6
:1050F000000F28D0E3684BEA0303E360B9F1000F27
:1051000001D106F580593146002251F8043B009345
:10511000304BCDF804C02E489A6140F6FC7203ABC8
:10512000FFF702FC039B009ADDF804C093420AD10A
:105130007B689C4507D9234BA560C3F804C0666013
:10514000C4F8009003E0A6F580564645CDD201355F
:10515000042D08F58048C1D11C4941F218028B5832
:1051600023F00F038B50FFF773FFD8B96368164A1B
:105170001BB9194B9060136014E01A1F03F6FC7101
:1051800052F8045FF81A8A428550F9D12268D31A7E
:10519000B3F58050114B18BF01209A4282BF0A4BD1
:1051A0000D4A1A60094941F218028B5823F4004352
:1051B0008B5001238AF8003000E0002005B0BDE8E4
:1051C000F08F00BFC894FE1FEC93FE1F0010005824
:1051D00058640208200002500000010CFFFF010C7F
:1051E00070B5094C044420460E46154600F0DEFC1E
:1051F000003018BF012000239AB2AA4203D2F25C09
:10520000E2540133F8E770BDD094FE1F10B5054B92
:10521000184400239CB2944203D2C45CCC540133A2
:10522000F8E710BDD094FE1F2DE9F341254C264E22
:10523000A368226803F540530433B2EB833F13D0D5
:10524000736827682148224901337360214B00228B
:105250009A6101AB40F6FC72FFF766FB019B33607D
:105260003D4607F580580CE07368002BE8D0636872
:10527000C3F38133A3600F23E360FFF7E9FEF0B9C6
:10528000DEE7FEF711FEE91B28463144FEF71AFE61
:10529000FEF710FEB0F1004F07D005F580754545CB
:1052A000EFD123686360002000E0032023680A49EF
:1052B000044A03F580538B4288BF084B136002B049
:1052C000BDE8F081EC93FE1FC894FE1F58640208ED
:1052D000CC94FE1F20000250FFFF010C0000010CC7
:1052E000024B5868B0FA80F040097047EC93FE1FFB
:1052F000437B10B504464BB90068217B6268FFF719
:10530000EEFAA068FEF766FE01236373002010BD6D
:10531000037B10B5044633B900682179A268FFF712
:10532000C9FA01232373002010BD000038B50546DB
:105330000068FFF7B3FE044670BBFFF7D1FF50B122
:10534000204616494FF40062FFF74AFFFFF76CFF53
:10535000044608BB04E011494FF40062FFF756FF12
:105360006868FFF779FB0446B0B9A868FFF708FE44
:10537000044688B900F098F8044668B9FBF746FA85
:10538000044648B9064B074A1A60074B074A686843
:105390001A60FFF71AFB0446E0B238BD4C8BFE1FC3
:1053A000B0A5FE1F11540208F8A4FE1FB153020855
:1053B000B0F5006F08B501D900201EE0104B1B6846
:1053C000002BF9D00F4A0728128823F8102003D0A9
:1053D00040F2FF339842EFD100200B494FF40062B6
:1053E000FFF7FEFE0028E7D0084A1388C3F30E0338
:1053F000138072B6FFF718FF62B680B208BD00BF17
:10540000A8A5FE1F080501544C8BFE1F0205015480
:105410000F4B1A68B2F5006F70B51C4616D80D4BCD
:105420001E689EB1002306EB42020B4D10685168C6
:105430000A4A03C523F4F0439BB213801388226801
:105440009BB203F4E061B1F5806FECD0002070BD39
:1054500004050154A8A5FE1F0805015402050154C6
:10546000FBF7CCBA024A136801331360FBF798B814
:10547000CCA4FE1F08B500F025FB09484FF40053EB
:10548000C360084B1A7853B2002BA1BF02F01F0271
:105490005B09012101FA02F2A8BF40F8232008BDF0
:1054A00000E100E0546402082DE9F04786B006AC44
:1054B000002504F80C5DC14BC14FC2481F600F218D
:1054C0002246009501950295FEF72AFDBE48072168
:1054D0002246FEF725FDBC4802212246FEF720FDAC
:1054E000B94801212246FEF71BFDB748294622464E
:1054F000FEF716FDB44806212246FEF711FDB2481C
:1055000004212246FEF70CFDB04806212246FEF794
:1055100007FDAD4805212246FEF702FDAC480421F7
:105520002246FEF7FDFCAB4804212246FEF7F8FCBC
:10553000A84805212246FEF7F3FCA648062122468C
:10554000FEF7EEFCA3480B212246FEF7E9FCA1483A
:1055500009212246FEF7E4FC9E4801212246FEF77F
:10556000DFFC9D4802212246FEF7DAFC99480A2119
:105570002246FEF7D5FC9DF8003065F300038DF858
:1055800000309DF8023003F03F0365F304038DF80B
:1055900002309DF8013003F0FC0365F305138DF82C
:1055A00001309DF804300098012666F3010366F38C
:1055B000830366F3051366F387138DF804309DF8B3
:1055C000053066F3051366F3830366F301038DF874
:1055D00005309DF8063066F301038DF806309DF81E
:1055E000073066F3051365F387138DF807309DF8D0
:1055F0000830019903F0C00365F387138DF8083074
:105600009DF8093003F0C30366F301038DF80930F8
:105610009DF80A3065F301038DF80A309DF80B30D0
:1056200003F0CF0365F387138DF80B306B4B029AB1
:105630001860596038469A60FFF702F9A0274FF4C6
:1056400080334FF0020A66480493062122468DF803
:1056500014A08DF80C70FEF763FC61488DF80C7097
:1056600005212246FEF75CFC5D488DF80C70042194
:105670002246FEF755FC5A488DF80C7051462246DA
:10568000FEF74EFC56488DF80C7031462246FEF768
:1056900047FC4FF088084F488DF80C8003212246C4
:1056A000FEF73EFC4B488DF80C8051462246FEF733
:1056B00037FC4FF0980946488DF80C905146224629
:1056C000FEF72EFC42488DF80C9031462246FEF73C
:1056D00027FC3F488DF80C7029462246FEF720FC37
:1056E0003F488DF80C7029462246FEF719FC3848D1
:1056F0008DF80C7003212246FEF712FC35488DF818
:105700000C500C212246FEF70BFC32480C2132468D
:10571000FFF72DF932488DF80C7003212246FEF771
:10572000FFFB2B488DF80C800C212246FEF7F8FB7E
:1057300028488DF80C9008212246FEF7F1FB2548F9
:1057400008212A46FFF713F922488DF80C9007210B
:105750002246FEF7E5FB1F4807212A46FFF707F917
:105760001C488DF80C8029462246FEF7D9FBE8B28A
:105770000135FFF795F8082DF9D14FF0FF30FFF70D
:1057800085F8184BDB68C3F30223C3F10701062930
:1057900028BF06210BB15A1E00E01A4601238B4098
:1057A000013B93409B00104ADBB282F86D33FFF758
:1057B00061FE002006B0BDE8F08700BFA8A5FE1F6F
:1057C0004C8BFE1F0081024800850248008202487F
:1057D0000083024800800248008F0248B041005018
:1057E0000086024800ED00E000E100E010B5EFF3B4
:1057F000108472B600F08CF90E484FF40053C0F8D4
:105800008C30BFF34F8FBFF36F8F0B4B1A7853B2AF
:10581000002B0CDB5B090121203302F01F0201FA8F
:1058200002F240F82320BFF34F8FBFF36F8F84F352
:10583000108810BD00E100E05464020810B5044671
